{
  "address": "0xD9Fb5569B6D4F73bEDD370B9884bE1EaAA227ad1",
  "abi": [
    {
      "inputs": [],
      "stateMutability": "nonpayable",
      "type": "constructor"
    },
    {
      "anonymous": false,
      "inputs": [
        {
          "indexed": false,
          "internalType": "uint256",
          "name": "id",
          "type": "uint256"
        }
      ],
      "name": "CampaignCreated",
      "type": "event"
    },
    {
      "anonymous": false,
      "inputs": [
        {
          "indexed": false,
          "internalType": "uint256",
          "name": "amount",
          "type": "uint256"
        },
        {
          "indexed": false,
          "internalType": "uint256",
          "name": "when",
          "type": "uint256"
        }
      ],
      "name": "Donation",
      "type": "event"
    },
    {
      "anonymous": false,
      "inputs": [
        {
          "indexed": false,
          "internalType": "uint256",
          "name": "amount",
          "type": "uint256"
        },
        {
          "indexed": false,
          "internalType": "uint256",
          "name": "when",
          "type": "uint256"
        }
      ],
      "name": "Withdrawal",
      "type": "event"
    },
    {
      "inputs": [
        {
          "internalType": "uint256",
          "name": "_campaignID",
          "type": "uint256"
        }
      ],
      "name": "ApproveCampaign",
      "outputs": [],
      "stateMutability": "nonpayable",
      "type": "function"
    },
    {
      "inputs": [
        {
          "internalType": "uint256",
          "name": "",
          "type": "uint256"
        }
      ],
      "name": "Campaigns",
      "outputs": [
        {
          "internalType": "uint256",
          "name": "campaignID",
          "type": "uint256"
        },
        {
          "internalType": "uint256",
          "name": "noOfDonations",
          "type": "uint256"
        },
        {
          "internalType": "uint256",
          "name": "totalAmountDonated",
          "type": "uint256"
        },
        {
          "internalType": "uint256",
          "name": "campaignTarget",
          "type": "uint256"
        },
        {
          "internalType": "bool",
          "name": "isApproved",
          "type": "bool"
        },
        {
          "internalType": "string",
          "name": "campaignName",
          "type": "string"
        },
        {
          "internalType": "address",
          "name": "owner",
          "type": "address"
        }
      ],
      "stateMutability": "view",
      "type": "function"
    },
    {
      "inputs": [
        {
          "internalType": "uint256",
          "name": "_campaignID",
          "type": "uint256"
        }
      ],
      "name": "Donate",
      "outputs": [],
      "stateMutability": "payable",
      "type": "function"
    },
    {
      "inputs": [
        {
          "internalType": "uint256",
          "name": "_campaignID",
          "type": "uint256"
        },
        {
          "internalType": "address",
          "name": "_campaignOwner",
          "type": "address"
        }
      ],
      "name": "Withdraw",
      "outputs": [],
      "stateMutability": "nonpayable",
      "type": "function"
    },
    {
      "inputs": [],
      "name": "admin",
      "outputs": [
        {
          "internalType": "address",
          "name": "",
          "type": "address"
        }
      ],
      "stateMutability": "view",
      "type": "function"
    },
    {
      "inputs": [
        {
          "internalType": "string",
          "name": "_campaignName",
          "type": "string"
        },
        {
          "internalType": "address",
          "name": "_campaignOwner",
          "type": "address"
        },
        {
          "internalType": "uint256",
          "name": "_campaignTarget",
          "type": "uint256"
        }
      ],
      "name": "createCampaign",
      "outputs": [],
      "stateMutability": "nonpayable",
      "type": "function"
    },
    {
      "inputs": [],
      "name": "noOfCampaigns",
      "outputs": [
        {
          "internalType": "uint256",
          "name": "",
          "type": "uint256"
        }
      ],
      "stateMutability": "view",
      "type": "function"
    },
    {
      "inputs": [],
      "name": "totalDonation",
      "outputs": [
        {
          "internalType": "uint256",
          "name": "",
          "type": "uint256"
        }
      ],
      "stateMutability": "view",
      "type": "function"
    }
  ],
  "transactionHash": "0x8c94b1719cd14b9ef0903bba6ed79410c2c78a64cd0279f3349eb0c9ee0f3e1e",
  "args": [],
  "numDeployments": 2,
  "solcInputHash": "3556b3f3d57ca0f8b45de14f7cc45fcb",
  "bytecode": "0x6080604052600160035534801561001557600080fd5b5033600260006101000a81548173ffffffffffffffffffffffffffffffffffffffff021916908373ffffffffffffffffffffffffffffffffffffffff1602179055506113d9806100666000396000f3fe60806040526004361061007b5760003560e01c806370cde4b51161004e57806370cde4b5146101335780638353ffca1461015c578063ee2ac05f14610185578063f851a440146101b05761007b565b806317818e59146100805780632d07c175146100ab57806333ac2627146100d45780634013be10146100f0575b600080fd5b34801561008c57600080fd5b506100956101db565b6040516100a29190610a6b565b60405180910390f35b3480156100b757600080fd5b506100d260048036038101906100cd9190610ac6565b6101e1565b005b6100ee60048036038101906100e99190610ac6565b6102a9565b005b3480156100fc57600080fd5b5061011760048036038101906101129190610ac6565b610429565b60405161012a9796959493929190610be8565b60405180910390f35b34801561013f57600080fd5b5061015a60048036038101906101559190610dbf565b610520565b005b34801561016857600080fd5b50610183600480360381019061017e9190610e2e565b61062d565b005b34801561019157600080fd5b5061019a610983565b6040516101a79190610a6b565b60405180910390f35b3480156101bc57600080fd5b506101c5610989565b6040516101d29190610e6e565b60405180910390f35b60005481565b600260009054906101000a900473ffffffffffffffffffffffffffffffffffffffff1673ffffffffffffffffffffffffffffffffffffffff163373ffffffffffffffffffffffffffffffffffffffff1614610271576040517f08c379a000000000000000000000000000000000000000000000000000000000815260040161026890610ed5565b60405180910390fd5b600060046000838152602001908152602001600020905060018160040160006101000a81548160ff0219169083151502179055505050565b600060046000838152602001908152602001600020905060003411610303576040517f08c379a00000000000000000000000000000000000000000000000000000000081526004016102fa90610f41565b60405180910390fd5b600115158160040160009054906101000a900460ff1615151461035b576040517f08c379a000000000000000000000000000000000000000000000000000000000815260040161035290610fd3565b60405180910390fd5b6064341161039e576040517f08c379a000000000000000000000000000000000000000000000000000000000815260040161039590611065565b60405180910390fd5b8060010160008154809291906103b3906110b4565b9190505550348160020160008282546103cc91906110fd565b9250508190555034600160008282546103e591906110fd565b925050819055507f965f7409cc0fd75aafcf803f57c201a8530900e4a4cbc0c622b1ea8f4cfbcf47344260405161041d929190611153565b60405180910390a15050565b60046020528060005260406000206000915090508060000154908060010154908060020154908060030154908060040160009054906101000a900460ff1690806005018054610477906111ab565b80601f01602080910402602001604051908101604052809291908181526020018280546104a3906111ab565b80156104f05780601f106104c5576101008083540402835291602001916104f0565b820191906000526020600020905b8154815290600101906020018083116104d357829003601f168201915b5050505050908060060160009054906101000a900473ffffffffffffffffffffffffffffffffffffffff16905087565b6000600354905060006004600083815260200190815260200160002090508181600001819055508481600501908051906020019061055f9291906109af565b508281600301819055506000816001018190555060008160020181905550838160060160006101000a81548173ffffffffffffffffffffffffffffffffffffffff021916908373ffffffffffffffffffffffffffffffffffffffff1602179055506000808154809291906105d2906110b4565b9190505550600360008154809291906105ea906110b4565b91905055507fbc0a5edd152fa5b886dcae82c5c109d113708653b4b9c0224549ccdf715af94e8260405161061e9190610a6b565b60405180910390a15050505050565b6000600460008481526020019081526020016000206040518060e0016040529081600082015481526020016001820154815260200160028201548152602001600382015481526020016004820160009054906101000a900460ff161515151581526020016005820180546106a0906111ab565b80601f01602080910402602001604051908101604052809291908181526020018280546106cc906111ab565b80156107195780601f106106ee57610100808354040283529160200191610719565b820191906000526020600020905b8154815290600101906020018083116106fc57829003601f168201915b505050505081526020016006820160009054906101000a900473ffffffffffffffffffffffffffffffffffffffff1673ffffffffffffffffffffffffffffffffffffffff1673ffffffffffffffffffffffffffffffffffffffff1681525050905060008160c0015190508073ffffffffffffffffffffffffffffffffffffffff168373ffffffffffffffffffffffffffffffffffffffff16146107f1576040517f08c379a00000000000000000000000000000000000000000000000000000000081526004016107e890611229565b60405180910390fd5b600073ffffffffffffffffffffffffffffffffffffffff168173ffffffffffffffffffffffffffffffffffffffff161415610861576040517f08c379a000000000000000000000000000000000000000000000000000000000815260040161085890611295565b60405180910390fd5b6000826040015190506000836040015150508260600151836040015110156108cf578173ffffffffffffffffffffffffffffffffffffffff166108fc829081150290604051600060405180830381858888f193505050501580156108c9573d6000803e3d6000fd5b50610943565b600060646007836108e091906112b5565b6108ea919061133e565b905080826108f8919061136f565b91508273ffffffffffffffffffffffffffffffffffffffff166108fc839081150290604051600060405180830381858888f19350505050158015610940573d6000803e3d6000fd5b50505b7fbf2ed60bd5b5965d685680c01195c9514e4382e28e3a5a2d2d5244bf59411b938142604051610974929190611153565b60405180910390a15050505050565b60015481565b600260009054906101000a900473ffffffffffffffffffffffffffffffffffffffff1681565b8280546109bb906111ab565b90600052602060002090601f0160209004810192826109dd5760008555610a24565b82601f106109f657805160ff1916838001178555610a24565b82800160010185558215610a24579182015b82811115610a23578251825591602001919060010190610a08565b5b509050610a319190610a35565b5090565b5b80821115610a4e576000816000905550600101610a36565b5090565b6000819050919050565b610a6581610a52565b82525050565b6000602082019050610a806000830184610a5c565b92915050565b6000604051905090565b600080fd5b600080fd5b610aa381610a52565b8114610aae57600080fd5b50565b600081359050610ac081610a9a565b92915050565b600060208284031215610adc57610adb610a90565b5b6000610aea84828501610ab1565b91505092915050565b60008115159050919050565b610b0881610af3565b82525050565b600081519050919050565b600082825260208201905092915050565b60005b83811015610b48578082015181840152602081019050610b2d565b83811115610b57576000848401525b50505050565b6000601f19601f8301169050919050565b6000610b7982610b0e565b610b838185610b19565b9350610b93818560208601610b2a565b610b9c81610b5d565b840191505092915050565b600073ffffffffffffffffffffffffffffffffffffffff82169050919050565b6000610bd282610ba7565b9050919050565b610be281610bc7565b82525050565b600060e082019050610bfd600083018a610a5c565b610c0a6020830189610a5c565b610c176040830188610a5c565b610c246060830187610a5c565b610c316080830186610aff565b81810360a0830152610c438185610b6e565b9050610c5260c0830184610bd9565b98975050505050505050565b600080fd5b600080fd5b7f4e487b7100000000000000000000000000000000000000000000000000000000600052604160045260246000fd5b610ca082610b5d565b810181811067ffffffffffffffff82111715610cbf57610cbe610c68565b5b80604052505050565b6000610cd2610a86565b9050610cde8282610c97565b919050565b600067ffffffffffffffff821115610cfe57610cfd610c68565b5b610d0782610b5d565b9050602081019050919050565b82818337600083830152505050565b6000610d36610d3184610ce3565b610cc8565b905082815260208101848484011115610d5257610d51610c63565b5b610d5d848285610d14565b509392505050565b600082601f830112610d7a57610d79610c5e565b5b8135610d8a848260208601610d23565b91505092915050565b610d9c81610bc7565b8114610da757600080fd5b50565b600081359050610db981610d93565b92915050565b600080600060608486031215610dd857610dd7610a90565b5b600084013567ffffffffffffffff811115610df657610df5610a95565b5b610e0286828701610d65565b9350506020610e1386828701610daa565b9250506040610e2486828701610ab1565b9150509250925092565b60008060408385031215610e4557610e44610a90565b5b6000610e5385828601610ab1565b9250506020610e6485828601610daa565b9150509250929050565b6000602082019050610e836000830184610bd9565b92915050565b7f4f6e6c792061646d696e2063616e20617070726f76652063616d706169676e00600082015250565b6000610ebf601f83610b19565b9150610eca82610e89565b602082019050919050565b60006020820190508181036000830152610eee81610eb2565b9050919050565b7f506c6561736520646f6e61746520746f20746869732063617573650000000000600082015250565b6000610f2b601b83610b19565b9150610f3682610ef5565b602082019050919050565b60006020820190508181036000830152610f5a81610f1e565b9050919050565b7f596f752063616e206f6e6c7920646f6e61746520746f20617070726f7665642060008201527f43616d706169676e730000000000000000000000000000000000000000000000602082015250565b6000610fbd602983610b19565b9150610fc882610f61565b604082019050919050565b60006020820190508181036000830152610fec81610fb0565b9050919050565b7f706c6561736520796f752063616e7420646f6e617465206c657373207468616e60008201527f2031303020776569000000000000000000000000000000000000000000000000602082015250565b600061104f602883610b19565b915061105a82610ff3565b604082019050919050565b6000602082019050818103600083015261107e81611042565b9050919050565b7f4e487b7100000000000000000000000000000000000000000000000000000000600052601160045260246000fd5b60006110bf82610a52565b91507fffffffffffffffffffffffffffffffffffffffffffffffffffffffffffffffff8214156110f2576110f1611085565b5b600182019050919050565b600061110882610a52565b915061111383610a52565b9250827fffffffffffffffffffffffffffffffffffffffffffffffffffffffffffffffff0382111561114857611147611085565b5b828201905092915050565b60006040820190506111686000830185610a5c565b6111756020830184610a5c565b9392505050565b7f4e487b7100000000000000000000000000000000000000000000000000000000600052602260045260246000fd5b600060028204905060018216806111c357607f821691505b602082108114156111d7576111d661117c565b5b50919050565b7f4f6e6c79206f776e65722063616e207769746864726177000000000000000000600082015250565b6000611213601783610b19565b915061121e826111dd565b602082019050919050565b6000602082019050818103600083015261124281611206565b9050919050565b7f696e76616c6964206f776e657220616464726573730000000000000000000000600082015250565b600061127f601583610b19565b915061128a82611249565b602082019050919050565b600060208201905081810360008301526112ae81611272565b9050919050565b60006112c082610a52565b91506112cb83610a52565b9250817fffffffffffffffffffffffffffffffffffffffffffffffffffffffffffffffff048311821515161561130457611303611085565b5b828202905092915050565b7f4e487b7100000000000000000000000000000000000000000000000000000000600052601260045260246000fd5b600061134982610a52565b915061135483610a52565b9250826113645761136361130f565b5b828204905092915050565b600061137a82610a52565b915061138583610a52565b92508282101561139857611397611085565b5b82820390509291505056fea26469706673582212201e4c139d3ae14fc53591609b903a21efed9a01066d67fbc898d1a4fc88a5df6064736f6c63430008090033",
  "devdoc": {
    "kind": "dev",
    "methods": {},
    "version": 1
  },
  "userdoc": {
    "kind": "user",
    "methods": {},
    "version": 1
  },
  "storageLayout": {
    "storage": [
      {
        "astId": 3,
        "contract": "contracts/CrowdFunding.sol:CrowdFunding",
        "label": "noOfCampaigns",
        "offset": 0,
        "slot": "0",
        "type": "t_uint256"
      },
      {
        "astId": 5,
        "contract": "contracts/CrowdFunding.sol:CrowdFunding",
        "label": "totalDonation",
        "offset": 0,
        "slot": "1",
        "type": "t_uint256"
      },
      {
        "astId": 7,
        "contract": "contracts/CrowdFunding.sol:CrowdFunding",
        "label": "admin",
        "offset": 0,
        "slot": "2",
        "type": "t_address"
      },
      {
        "astId": 10,
        "contract": "contracts/CrowdFunding.sol:CrowdFunding",
        "label": "ID",
        "offset": 0,
        "slot": "3",
        "type": "t_uint256"
      },
      {
        "astId": 55,
        "contract": "contracts/CrowdFunding.sol:CrowdFunding",
        "label": "Campaigns",
        "offset": 0,
        "slot": "4",
        "type": "t_mapping(t_uint256,t_struct(Campaign)50_storage)"
      }
    ],
    "types": {
      "t_address": {
        "encoding": "inplace",
        "label": "address",
        "numberOfBytes": "20"
      },
      "t_bool": {
        "encoding": "inplace",
        "label": "bool",
        "numberOfBytes": "1"
      },
      "t_mapping(t_uint256,t_struct(Campaign)50_storage)": {
        "encoding": "mapping",
        "key": "t_uint256",
        "label": "mapping(uint256 => struct CrowdFunding.Campaign)",
        "numberOfBytes": "32",
        "value": "t_struct(Campaign)50_storage"
      },
      "t_string_storage": {
        "encoding": "bytes",
        "label": "string",
        "numberOfBytes": "32"
      },
      "t_struct(Campaign)50_storage": {
        "encoding": "inplace",
        "label": "struct CrowdFunding.Campaign",
        "members": [
          {
            "astId": 37,
            "contract": "contracts/CrowdFunding.sol:CrowdFunding",
            "label": "campaignID",
            "offset": 0,
            "slot": "0",
            "type": "t_uint256"
          },
          {
            "astId": 39,
            "contract": "contracts/CrowdFunding.sol:CrowdFunding",
            "label": "noOfDonations",
            "offset": 0,
            "slot": "1",
            "type": "t_uint256"
          },
          {
            "astId": 41,
            "contract": "contracts/CrowdFunding.sol:CrowdFunding",
            "label": "totalAmountDonated",
            "offset": 0,
            "slot": "2",
            "type": "t_uint256"
          },
          {
            "astId": 43,
            "contract": "contracts/CrowdFunding.sol:CrowdFunding",
            "label": "campaignTarget",
            "offset": 0,
            "slot": "3",
            "type": "t_uint256"
          },
          {
            "astId": 45,
            "contract": "contracts/CrowdFunding.sol:CrowdFunding",
            "label": "isApproved",
            "offset": 0,
            "slot": "4",
            "type": "t_bool"
          },
          {
            "astId": 47,
            "contract": "contracts/CrowdFunding.sol:CrowdFunding",
            "label": "campaignName",
            "offset": 0,
            "slot": "5",
            "type": "t_string_storage"
          },
          {
            "astId": 49,
            "contract": "contracts/CrowdFunding.sol:CrowdFunding",
            "label": "owner",
            "offset": 0,
            "slot": "6",
            "type": "t_address"
          }
        ],
        "numberOfBytes": "224"
      },
      "t_uint256": {
        "encoding": "inplace",
        "label": "uint256",
        "numberOfBytes": "32"
      }
    }
  }
}